{
  "contractName": "Marketplace",
  "abi": [
    {
      "anonymous": false,
      "inputs": [
        {
          "indexed": false,
          "internalType": "uint256",
          "name": "id",
          "type": "uint256"
        },
        {
          "indexed": false,
          "internalType": "string",
          "name": "name",
          "type": "string"
        },
        {
          "indexed": false,
          "internalType": "uint256",
          "name": "price",
          "type": "uint256"
        },
        {
          "indexed": false,
          "internalType": "string",
          "name": "image",
          "type": "string"
        },
        {
          "indexed": false,
          "internalType": "string",
          "name": "description",
          "type": "string"
        },
        {
          "indexed": false,
          "internalType": "address",
          "name": "owner",
          "type": "address"
        }
      ],
      "name": "ItemListed",
      "type": "event"
    },
    {
      "anonymous": false,
      "inputs": [
        {
          "indexed": false,
          "internalType": "uint256",
          "name": "id",
          "type": "uint256"
        },
        {
          "indexed": false,
          "internalType": "address",
          "name": "buyer",
          "type": "address"
        },
        {
          "indexed": false,
          "internalType": "uint256",
          "name": "price",
          "type": "uint256"
        }
      ],
      "name": "ItemPurchased",
      "type": "event"
    },
    {
      "inputs": [],
      "name": "itemCount",
      "outputs": [
        {
          "internalType": "uint256",
          "name": "",
          "type": "uint256"
        }
      ],
      "stateMutability": "view",
      "type": "function",
      "constant": true
    },
    {
      "inputs": [
        {
          "internalType": "uint256",
          "name": "",
          "type": "uint256"
        }
      ],
      "name": "items",
      "outputs": [
        {
          "internalType": "uint256",
          "name": "id",
          "type": "uint256"
        },
        {
          "internalType": "string",
          "name": "name",
          "type": "string"
        },
        {
          "internalType": "uint256",
          "name": "price",
          "type": "uint256"
        },
        {
          "internalType": "string",
          "name": "image",
          "type": "string"
        },
        {
          "internalType": "string",
          "name": "description",
          "type": "string"
        },
        {
          "internalType": "address payable",
          "name": "owner",
          "type": "address"
        },
        {
          "internalType": "bool",
          "name": "sold",
          "type": "bool"
        }
      ],
      "stateMutability": "view",
      "type": "function",
      "constant": true
    },
    {
      "inputs": [
        {
          "internalType": "string",
          "name": "_name",
          "type": "string"
        },
        {
          "internalType": "uint256",
          "name": "_price",
          "type": "uint256"
        },
        {
          "internalType": "string",
          "name": "_image",
          "type": "string"
        },
        {
          "internalType": "string",
          "name": "_description",
          "type": "string"
        }
      ],
      "name": "listItem",
      "outputs": [],
      "stateMutability": "nonpayable",
      "type": "function"
    },
    {
      "inputs": [
        {
          "internalType": "uint256",
          "name": "_id",
          "type": "uint256"
        }
      ],
      "name": "purchaseItem",
      "outputs": [],
      "stateMutability": "payable",
      "type": "function",
      "payable": true
    }
  ],
  "bytecode": "0x60806040526000805534801561001457600080fd5b5061100b806100246000396000f3fe60806040526004361061003f5760003560e01c806343c28f9a146100445780636bfb0d011461006d578063bfb231d214610098578063d38ea5bf146100db575b600080fd5b34801561005057600080fd5b5061006b600480360381019061006691906107d7565b6100f7565b005b34801561007957600080fd5b506100826102bc565b60405161008f91906108a1565b60405180910390f35b3480156100a457600080fd5b506100bf60048036038101906100ba91906108bc565b6102c2565b6040516100d297969594939291906109c4565b60405180910390f35b6100f560048036038101906100f091906108bc565b6104c9565b005b6000831161013a576040517f08c379a000000000000000000000000000000000000000000000000000000000815260040161013190610aba565b60405180910390fd5b60008081548092919061014c90610b09565b91905055506040518060e0016040528060005481526020018581526020018481526020018381526020018281526020013373ffffffffffffffffffffffffffffffffffffffff1681526020016000151581525060016000805481526020019081526020016000206000820151816000015560208201518160010190816101d29190610d5d565b506040820151816002015560608201518160030190816101f29190610d5d565b5060808201518160040190816102089190610d5d565b5060a08201518160050160006101000a81548173ffffffffffffffffffffffffffffffffffffffff021916908373ffffffffffffffffffffffffffffffffffffffff16021790555060c08201518160050160146101000a81548160ff0219169083151502179055509050507f92e60959ce2569329aea8cc44d093d515a075fb80344832cc1bced12c430b0e760005485858585336040516102ae96959493929190610e50565b60405180910390a150505050565b60005481565b60016020528060005260406000206000915090508060000154908060010180546102eb90610b80565b80601f016020809104026020016040519081016040528092919081815260200182805461031790610b80565b80156103645780601f1061033957610100808354040283529160200191610364565b820191906000526020600020905b81548152906001019060200180831161034757829003601f168201915b50505050509080600201549080600301805461037f90610b80565b80601f01602080910402602001604051908101604052809291908181526020018280546103ab90610b80565b80156103f85780601f106103cd576101008083540402835291602001916103f8565b820191906000526020600020905b8154815290600101906020018083116103db57829003601f168201915b50505050509080600401805461040d90610b80565b80601f016020809104026020016040519081016040528092919081815260200182805461043990610b80565b80156104865780601f1061045b57610100808354040283529160200191610486565b820191906000526020600020905b81548152906001019060200180831161046957829003601f168201915b5050505050908060050160009054906101000a900473ffffffffffffffffffffffffffffffffffffffff16908060050160149054906101000a900460ff16905087565b60006001600083815260200190815260200160002090508060050160149054906101000a900460ff1615610532576040517f08c379a000000000000000000000000000000000000000000000000000000000815260040161052990610f12565b60405180910390fd5b80600201543414610578576040517f08c379a000000000000000000000000000000000000000000000000000000000815260040161056f90610f7e565b60405180910390fd5b8060050160009054906101000a900473ffffffffffffffffffffffffffffffffffffffff1673ffffffffffffffffffffffffffffffffffffffff166108fc82600201549081150290604051600060405180830381858888f193505050501580156105e6573d6000803e3d6000fd5b5060018160050160146101000a81548160ff0219169083151502179055507f78a0660bbda86d17037943644187f6f1f73f2f20a3240bf4cf4a56c2a96bcf848233836002015460405161063b93929190610f9e565b60405180910390a15050565b6000604051905090565b600080fd5b600080fd5b600080fd5b600080fd5b6000601f19601f8301169050919050565b7f4e487b7100000000000000000000000000000000000000000000000000000000600052604160045260246000fd5b6106ae82610665565b810181811067ffffffffffffffff821117156106cd576106cc610676565b5b80604052505050565b60006106e0610647565b90506106ec82826106a5565b919050565b600067ffffffffffffffff82111561070c5761070b610676565b5b61071582610665565b9050602081019050919050565b82818337600083830152505050565b600061074461073f846106f1565b6106d6565b9050828152602081018484840111156107605761075f610660565b5b61076b848285610722565b509392505050565b600082601f8301126107885761078761065b565b5b8135610798848260208601610731565b91505092915050565b6000819050919050565b6107b4816107a1565b81146107bf57600080fd5b50565b6000813590506107d1816107ab565b92915050565b600080600080608085870312156107f1576107f0610651565b5b600085013567ffffffffffffffff81111561080f5761080e610656565b5b61081b87828801610773565b945050602061082c878288016107c2565b935050604085013567ffffffffffffffff81111561084d5761084c610656565b5b61085987828801610773565b925050606085013567ffffffffffffffff81111561087a57610879610656565b5b61088687828801610773565b91505092959194509250565b61089b816107a1565b82525050565b60006020820190506108b66000830184610892565b92915050565b6000602082840312156108d2576108d1610651565b5b60006108e0848285016107c2565b91505092915050565b600081519050919050565b600082825260208201905092915050565b60005b83811015610923578082015181840152602081019050610908565b60008484015250505050565b600061093a826108e9565b61094481856108f4565b9350610954818560208601610905565b61095d81610665565b840191505092915050565b600073ffffffffffffffffffffffffffffffffffffffff82169050919050565b600061099382610968565b9050919050565b6109a381610988565b82525050565b60008115159050919050565b6109be816109a9565b82525050565b600060e0820190506109d9600083018a610892565b81810360208301526109eb818961092f565b90506109fa6040830188610892565b8181036060830152610a0c818761092f565b90508181036080830152610a20818661092f565b9050610a2f60a083018561099a565b610a3c60c08301846109b5565b98975050505050505050565b7f4c65207072697820646f69742065747265207375706572696575722061207a6560008201527f726f000000000000000000000000000000000000000000000000000000000000602082015250565b6000610aa46022836108f4565b9150610aaf82610a48565b604082019050919050565b60006020820190508181036000830152610ad381610a97565b9050919050565b7f4e487b7100000000000000000000000000000000000000000000000000000000600052601160045260246000fd5b6000610b14826107a1565b91507fffffffffffffffffffffffffffffffffffffffffffffffffffffffffffffffff8203610b4657610b45610ada565b5b600182019050919050565b7f4e487b7100000000000000000000000000000000000000000000000000000000600052602260045260246000fd5b60006002820490506001821680610b9857607f821691505b602082108103610bab57610baa610b51565b5b50919050565b60008190508160005260206000209050919050565b60006020601f8301049050919050565b600082821b905092915050565b600060088302610c137fffffffffffffffffffffffffffffffffffffffffffffffffffffffffffffffff82610bd6565b610c1d8683610bd6565b95508019841693508086168417925050509392505050565b6000819050919050565b6000610c5a610c55610c50846107a1565b610c35565b6107a1565b9050919050565b6000819050919050565b610c7483610c3f565b610c88610c8082610c61565b848454610be3565b825550505050565b600090565b610c9d610c90565b610ca8818484610c6b565b505050565b5b81811015610ccc57610cc1600082610c95565b600181019050610cae565b5050565b601f821115610d1157610ce281610bb1565b610ceb84610bc6565b81016020851015610cfa578190505b610d0e610d0685610bc6565b830182610cad565b50505b505050565b600082821c905092915050565b6000610d3460001984600802610d16565b1980831691505092915050565b6000610d4d8383610d23565b9150826002028217905092915050565b610d66826108e9565b67ffffffffffffffff811115610d7f57610d7e610676565b5b610d898254610b80565b610d94828285610cd0565b600060209050601f831160018114610dc75760008415610db5578287015190505b610dbf8582610d41565b865550610e27565b601f198416610dd586610bb1565b60005b82811015610dfd57848901518255600182019150602085019450602081019050610dd8565b86831015610e1a5784890151610e16601f891682610d23565b8355505b6001600288020188555050505b505050505050565b6000610e3a82610968565b9050919050565b610e4a81610e2f565b82525050565b600060c082019050610e656000830189610892565b8181036020830152610e77818861092f565b9050610e866040830187610892565b8181036060830152610e98818661092f565b90508181036080830152610eac818561092f565b9050610ebb60a0830184610e41565b979650505050505050565b7f43652070726f6475697420612064656a61206574652076656e64750000000000600082015250565b6000610efc601b836108f4565b9150610f0782610ec6565b602082019050919050565b60006020820190508181036000830152610f2b81610eef565b9050919050565b7f4d6f6e74616e7420696e636f7272656374000000000000000000000000000000600082015250565b6000610f686011836108f4565b9150610f7382610f32565b602082019050919050565b60006020820190508181036000830152610f9781610f5b565b9050919050565b6000606082019050610fb36000830186610892565b610fc06020830185610e41565b610fcd6040830184610892565b94935050505056fea2646970667358221220670677fcf41e580791dd3331a72adc39a575a91a541c1d0532cfe3bafccafbef64736f6c63430008110033",
  "immutableReferences": {},
  "source": "// SPDX-License-Identifier: MIT\r\npragma solidity ^0.8.17;\r\n\r\ncontract Marketplace {\r\n    struct Item {\r\n        uint id;\r\n        string name;\r\n        uint price;\r\n        string image; // URL de l'image\r\n        string description; // Description du produit\r\n        address payable owner;\r\n        bool sold;\r\n    }\r\n\r\n    uint public itemCount = 0;\r\n    mapping(uint => Item) public items;\r\n\r\n    event ItemListed(uint id, string name, uint price, string image, string description, address owner);\r\n    event ItemPurchased(uint id, address buyer, uint price);\r\n\r\n    // Fonction pour lister un produit\r\n    function listItem(string memory _name, uint _price, string memory _image, string memory _description) public {\r\n        require(_price > 0, \"Le prix doit etre superieur a zero\");\r\n        itemCount++;\r\n        items[itemCount] = Item(itemCount, _name, _price, _image, _description, payable(msg.sender), false);\r\n        emit ItemListed(itemCount, _name, _price, _image, _description, msg.sender);\r\n    }\r\n\r\n    // Fonction pour acheter un produit\r\n    function purchaseItem(uint _id) public payable {\r\n        Item storage item = items[_id];\r\n        require(!item.sold, \"Ce produit a deja ete vendu\");\r\n        require(msg.value == item.price, \"Montant incorrect\");\r\n        item.owner.transfer(item.price);\r\n        item.sold = true;\r\n        emit ItemPurchased(_id, msg.sender, item.price);\r\n    }\r\n}\r\n",
  "sourcePath": "/mnt/c/Users/fredd/WebstormProjects/truffle-marketplace/contracts/Marketplace.sol",
  "compiler": {
    "name": "solc",
    "version": "0.8.17+commit.8df45f5f.Emscripten.clang"
  },
  "schemaVersion": "3.4.4",
  "updatedAt": "2024-11-20T14:27:34.789Z",
  "networkType": "ethereum",
  "devdoc": {
    "kind": "dev",
    "methods": {},
    "version": 1
  },
  "userdoc": {
    "kind": "user",
    "methods": {},
    "version": 1
  }
}